:100000000C9434000C9451000C94B2010C945100E7
:100010000C9451000C9451000C9451000C9451001C
:100020000C9451000C9451000C9451000C948D01CF
:100030000C9451000C9451000C943C010C94510010
:100040000C9451000C9451000C9473020C945100C8
:100050000C9451000C9451000C9451000C945100DC
:100060000C9451000C94510011241FBECFEFD8E026
:10007000DEBFCDBF11E0A0E0B1E0EAEFF7E002C0E3
:1000800005900D92A833B107D9F722E0A8E3B1E0BB
:1000900001C01D92AC36B207E1F70E9426010C9414
:1000A000B8030C940000209A259A549A579A219AE2
:1000B000229A239A28982D985C985F9A29982A9AD0
:1000C00080E58CBD81E08DBD82E084BD85E085BD8D
:1000D00083E087BDEEE6F0E08081826080833C9A19
:1000E000A4ECB0E083E390E011969C938E93E1E85A
:1000F000F0E020812860208320812360208329EF85
:1001000030E03093890020938800EFE6F0E0208112
:100110002260208311969C938E9388E98093C1007E
:100120008EE08093C2001092C000539852988BB119
:100130008BB9E9E6F0E08081816080838DB38360D4
:100140008DBB3B9A88B188B95698559A5D9A1092A2
:100150004E0210924F0210925002109251021092D1
:1001600043021092440210924502109246021092ED
:1001700047021092520210924D02109265021092A4
:10018000640208955C9A5F9AE0E2F1E088E391E00E
:1001900021912EBD0DB407FEFDCFE817F907C1F779
:1001A000299A29980895E0E0F1E080E291E0119227
:1001B000E817F907E1F78FEF80930001FFCFE0E048
:1001C000F1E080E291E02FEF2193E817F907E1F7E2
:1001D0004E9BFECF83E090E0909363028093620297
:1001E0000E94D3008DE08093B3004E99FECF82E051
:1001F00090E090936302809362020E94DF008295F8
:10020000880F807EE0E0F1E020E231E0A82FB0E04E
:10021000A754BE4F9C9191938F5FE217F307B1F7FC
:100220000895809148028130E1F710924802C0E0C1
:100230008C2F0E94FF002FEF80E792E0215080403A
:100240009040E1F700C00000CF5FF2CF0E94530062
:100250000E94C2007894439A4E9B08C081E090E0CF
:1002600090936302809362020E94F20010926302F4
:10027000109262020E9411011F920F920FB60F920C
:1002800011242F933F934F938F939F93EF93FF935B
:100290002A9A5F9B0CC05F9880913801882321F0D7
:1002A000299A2998109238012D9A2D9808C080918A
:1002B0003801882321F0299A2998109238012A9828
:1002C00020E031E080E291E0F9014E2F421B40FD39
:1002D00006C040814EBD0DB407FEFDCF0BC040816E
:1002E00042954F704EBD0DB407FEFDCF1EBC0DB440
:1002F00007FEFDCF3196E817F90739F781E08093C3
:100300003801FF91EF919F918F914F913F912F91E4
:100310000F900FBE0F901F9018951F920F920FB65F
:100320000F9211248F939F93AF93BF9380913F02BD
:1003300090914002A0914102B09142020196A11D0C
:10034000B11D80933F0290934002A0934102B0936D
:100350004202BF91AF919F918F910F900FBE0F906E
:100360001F9018951F920F920FB60F9211242F9382
:100370003F934F935F936F937F938F939F93AF932D
:10038000BF93EF93FF9380913F0290914002A09121
:100390004102B091420290936502809364021092F0
:1003A0003F0210924002109241021092420280914C
:1003B0003B0290913C02A0913D02B0913E02019619
:1003C000A11DB11D80933B0290933C02A0933D027E
:1003D000B0933E0260913B0270913C0280913D02DD
:1003E00090913E020E94C7022EEA37E441EE5FE39D
:1003F0000E942D030E949B026093490270934A025F
:1004000080934B0290934C0281E080934802FF91CD
:10041000EF91BF91AF919F918F917F916F915F917C
:100420004F913F912F910F900FBE0F901F901895F5
:10043000E0ECF0E080818823ECF78091C60008951D
:10044000E0ECF0E0908195FFFDCF8093C600089529
:100450009F92AF92BF92CF92DF92EF92FF920F9353
:100460001F93CF93DF9381E30E942002C12CD12CF4
:1004700076016894D6F80F2EF9E3AF2EF1E0BF2E87
:10048000F02D09EB11E06894992493F81CC00E94A8
:1004900018028993C017D107D1F7A501C701B6018A
:1004A0000E94BA0388B1892588B981E30E9420029D
:1004B00080E8C80ED11CE11CF11CC1148DE6D806E1
:1004C000E104F10411F0E501E2CF10925202DF9154
:1004D000CF911F910F91FF90EF90DF90CF90BF9041
:1004E000AF909F9008951F920F920FB60F92112414
:1004F0002F933F934F935F936F937F938F939F932C
:10050000AF93BF93EF93FF93F8940E94280281E08A
:1005100080935202FF91EF91BF91AF919F918F9184
:100520007F916F915F914F913F912F910F900FBEEF
:100530000F901F90189570D088F09F5790F0B92FAA
:100540009927B751A0F0D1F0660F771F881F991F28
:100550001AF0BA95C9F712C0B13081F077D0B1E086
:10056000089574C0672F782F8827B85F39F0B93F96
:10057000CCF3869577956795B395D9F73EF490952A
:100580008095709561957F4F8F4F9F4F0895E894A8
:1005900009C097FB3EF490958095709561957F4FCB
:1005A0008F4F9F4F9923A9F0F92F96E9BB27939579
:1005B000F695879577956795B795F111F8CFFAF489
:1005C000BB0F11F460FF1BC06F5F7F4F8F4F9F4FBA
:1005D00016C0882311F096E911C0772321F09EE818
:1005E000872F762F05C0662371F096E8862F70E07E
:1005F00060E02AF09A95660F771F881FDAF7880F58
:100600009695879597F9089557FD9058440F551F73
:1006100059F05F3F71F04795880F97FB991F61F084
:100620009F3F79F087950895121613061406551FFB
:10063000F2CF4695F1DF08C0161617061806991F67
:10064000F1CF86957105610508940895E894BB275C
:1006500066277727CB0197F908950BD078C069D02A
:1006600028F06ED018F0952309F05AC05FC011240D
:10067000EECFCADFA0F3959FD1F3950F50E0551F41
:10068000629FF001729FBB27F00DB11D639FAA27E7
:10069000F00DB11DAA1F649F6627B00DA11D661F36
:1006A000829F2227B00DA11D621F739FB00DA11D57
:1006B000621F839FA00D611D221F749F3327A00D11
:1006C000611D231F849F600D211D822F762F6A2FAD
:1006D00011249F5750408AF0E1F088234AF0EE0F32
:1006E000FF1FBB1F661F771F881F91505040A9F73F
:1006F0009E3F510570F014C0AACF5F3FECF3983EC7
:10070000DCF3869577956795B795F795E7959F5FA5
:10071000C1F7FE2B880F911D9695879597F908953F
:1007200097F99F6780E870E060E008959FEF80ECA4
:10073000089500240A941616170618060906089547
:1007400000240A9412161306140605060895092EAD
:100750000394000C11F4882352F0BB0F40F4BF2B1C
:1007600011F460FF04C06F5F7F4F8F4F9F4F08955C
:04077000F894FFCF2B
:10077400FF920F931F93CF93DF93FFB6F894F999E9
:10078400FECF9B01A3E0FB01A0935700E89507B6B9
:1007940000FCFDCFEA01C058DF4FDA0101E0F901A6
:1007A400E41BF50BAF011C91FA01EA0FFB1F119634
:1007B4002C91119730E0322F2227210F311D09018E
:1007C40000935700E89511241296AC17BD0759F70A
:1007D40025E0FB0120935700E89507B600FCFDCF08
:1007E40081E180935700E895FFBEDF91CF911F917F
:0607F4000F91FF90089533
:1007FA00000000000000000102040810204080FFF1
:10080A00FF804020100804020100000000000000E0
:10081A00FFFFFFFFFFFFFFFFFFFFFFFFFFFFFFFFDE
:08082A00FFFFFFFFFFFFFFFFCE
:00000001FF
