S0100000454E4747323830302E7372656329
S11300000C9434000C9451000C9451000C94510045
S11300100C9451000C9451000C9451000C94510018
S11300200C9451000C9451000C9451000C94510008
S11300300C9451000C9451000C94B2000C94510097
S11300400C9451000C9451000C9451000C945100E8
S11300500C9451000C9451000C9451000C945100D8
S11300600C9451000C94510011241FBECFEFD8E022
S1130070DEBFCDBF13E0A0E0B1E0E4E3F2E002C0F4
S113008005900D92A03AB107D9F724E0A0EAB3E0B5
S113009001C01D92A236B207E1F70E940F010C9431
S11300A018010C940000209A259A549A579A219A80
S11300B0229A239A28982D985C985F9A29982A9ACC
S11300C008955C9A5F9AE0E4F3E080EA93E003C069
S11300D0299A299808952191222311F02B9A01C07D
S11300E02B982D9A2D98E817F907A9F7F1CF5F9B64
S11300F003C05F9841E001C040E02A9880E090E1AD
S113010020E008C02A9A299A29984423C1F02D9AFC
S11301102D980895203C68F4E22FF0E0E056FC4F5F
S11301203081332311F02B9A01C02B982D9A2D98EE
S11301302F5F289A28980197009761F7E3CF0895D5
S113014084B5826084BD8FEF87BDEEE6F0E08081E8
S113015082608083789485B5816085BD85B584602F
S113016085BD08951F920F920FB60F9211242F93FD
S11301708F939F93AF93BF93EF93FF93809160040A
S113018090916104892BA9F4E0E8F2E0A0EAB3E0DD
S113019080E493E021912D93E817F907D9F7809132
S11301A060049091610401969093610480936004CB
S11301B02AC080916004909161040197A9F4E0EC55
S11301C0F1E0A0EAB3E080E892E021912D93E817F2
S11301D0F907D9F780916004909161040196909396
S11301E06104809360040FC0E0E0F1E0A0EAB3E0B2
S11301F080EC91E021912D93E817F907D9F710923B
S1130200610410926004FF91EF91BF91AF919F91AF
S11302108F912F910F900FBE0F901F9018950E94F1
S1130220A0000E9453000E9461000E947700FDCF4D
S1070230F894FFCF6C
S113023401010101010101010101010101000000A9
S113024400000000000000000001000000000000A5
S11302540000000000000100000000000000000095
S11302640000000100000000000000000000000085
S11302740100000000000000000000000001000074
S11302840000000000000000000001000000000065
S11302940000000000000001000000000000000055
S11302A40000000001000000000000000000000045
S11302B40001000000000000000000000000010034
S11302C40000000000000000000000010000000025
S11302D40000000000000000000000000000000016
S11302E400000000010101010101010101010101FA
S11302F400000000000000000100000000000000F5
S113030400000001000000000000000000000100E3
S113031400000000000000000001000000000000D4
S113032400000000010000000000000000000001C3
S113033400000000000000000000010000010000B3
S113034400000000000100000000000000000000A4
S11303540101010101010101010101010001000088
S11303640000000001000000000001000000000083
S11303740001000000000001000000000000010072
S11303840000000001000000000000010000000063
S11303940001000000000000000000000000010053
S11303A40000000001010101010101010101010139
S11303B40000000000000000000000000000000035
S11303C40000000000000000000000000000000025
S11303D40000000000000000000000000000000114
S11303E40000000000000000000001000000000004
S11303F400000000000100000000000000000000F4
S113040401000000000000000000000100000000E2
S113041400000000000001000000000000000000D3
S113042400010000000000000000000001000000C2
S113043400000000000000010000000000000000B3
S113044400000100000000000000000000010000A2
S11304540000000000000000010000000000000093
S11304640000000001010101010101010101010178
S11304740101010101010101010101010101010164
S11304840101010101010101010101010101010154
S11304940101010101010101010101010101010144
S11304A40101010101010101010101010101010134
S11304B40101010101010101010101010101010124
S11304C40101010101010101010101010101010114
S9030000FC
