S0100000454E4747323830302E7372656329
S11300000C9434000C9451000C9451000C94510045
S11300100C9451000C9451000C9451000C94510018
S11300200C9451000C9451000C9451000C94510008
S11300300C9451000C9451000C9481000C945100C8
S11300400C9451000C9451000C9451000C945100E8
S11300500C9451000C9451000C9451000C945100D8
S11300600C9451000C94510011241FBECFEFD8E022
S1130070DEBFCDBF11E0A0E0B1E0E8E8F1E002C0EE
S113008005900D92A432B107D9F721E0A4E2B1E0C2
S113009001C01D92A532B207E1F70E94BC000C9486
S11300A0C2000C940000209A259A549A579A219AD7
S11300B0229A239A28982D985C985F9A29982A9ACC
S11300C080E58CBD81E08DBD82E084BD85E085BD89
S11300D083E087BDEEE6F0E080818260808308954E
S11300E05C9A5F9AE8E1F1E084E291E021912EBD0F
S11300F00DB407FEFDCFE817F907C1F7299A29982F
S113010008951F920F920FB60F9211242F938F937D
S11301109F93EF93FF932A9A5F9B0CC05F98809103
S11301202401882321F0299A2998109224012D9AD8
S11301302D9808C080912401882321F0299A2998B8
S1130140109224012A98E0E0F1E088E191E0219105
S11301502EBD0DB407FEFDCFE817F907C1F781E006
S113016080932401FF91EF919F918F912F910F9094
S11301700FBE0F901F9018950E9453000E947000AC
S10B01807894FFCFF894FFCF3F
S11301880000000000010020040080100200400864
S11301980100200400800FFFFFFFFFFFFFFFFFFFA8
S10701A8FFFFFFFF53
S9030000FC
